{
  "contractName": "BCCA_Healthcare",
  "abi": [
    {
      "inputs": [],
      "stateMutability": "nonpayable",
      "type": "constructor"
    },
    {
      "anonymous": false,
      "inputs": [
        {
          "indexed": false,
          "internalType": "string",
          "name": "actor",
          "type": "string"
        },
        {
          "indexed": false,
          "internalType": "string",
          "name": "action",
          "type": "string"
        },
        {
          "indexed": false,
          "internalType": "uint256",
          "name": "timestamp",
          "type": "uint256"
        }
      ],
      "name": "AuditLogged",
      "type": "event"
    },
    {
      "anonymous": false,
      "inputs": [
        {
          "indexed": false,
          "internalType": "address",
          "name": "server",
          "type": "address"
        }
      ],
      "name": "ConsensusServerAdded",
      "type": "event"
    },
    {
      "anonymous": false,
      "inputs": [
        {
          "indexed": false,
          "internalType": "address",
          "name": "server",
          "type": "address"
        }
      ],
      "name": "ConsensusServerRemoved",
      "type": "event"
    },
    {
      "anonymous": false,
      "inputs": [
        {
          "indexed": true,
          "internalType": "string",
          "name": "pseudoID",
          "type": "string"
        },
        {
          "indexed": true,
          "internalType": "bytes32",
          "name": "blockHash",
          "type": "bytes32"
        },
        {
          "indexed": false,
          "internalType": "uint256",
          "name": "timestamp",
          "type": "uint256"
        }
      ],
      "name": "EHRUploaded",
      "type": "event"
    },
    {
      "anonymous": false,
      "inputs": [
        {
          "indexed": true,
          "internalType": "string",
          "name": "pseudoID",
          "type": "string"
        },
        {
          "indexed": false,
          "internalType": "string",
          "name": "CH_i",
          "type": "string"
        },
        {
          "indexed": false,
          "internalType": "uint256",
          "name": "timestamp",
          "type": "uint256"
        }
      ],
      "name": "EvidenceAdded",
      "type": "event"
    },
    {
      "anonymous": false,
      "inputs": [
        {
          "indexed": true,
          "internalType": "string",
          "name": "pseudoID",
          "type": "string"
        },
        {
          "indexed": false,
          "internalType": "string",
          "name": "CH_i",
          "type": "string"
        },
        {
          "indexed": false,
          "internalType": "uint256",
          "name": "timestamp",
          "type": "uint256"
        }
      ],
      "name": "EvidenceModified",
      "type": "event"
    },
    {
      "anonymous": false,
      "inputs": [
        {
          "indexed": true,
          "internalType": "string",
          "name": "pseudoID",
          "type": "string"
        },
        {
          "indexed": false,
          "internalType": "uint8",
          "name": "role",
          "type": "uint8"
        },
        {
          "indexed": false,
          "internalType": "uint256",
          "name": "timestamp",
          "type": "uint256"
        }
      ],
      "name": "UserRegistered",
      "type": "event"
    },
    {
      "anonymous": false,
      "inputs": [
        {
          "indexed": true,
          "internalType": "string",
          "name": "pseudoID",
          "type": "string"
        },
        {
          "indexed": false,
          "internalType": "uint256",
          "name": "timestamp",
          "type": "uint256"
        }
      ],
      "name": "UserRevoked",
      "type": "event"
    },
    {
      "inputs": [
        {
          "internalType": "address",
          "name": "",
          "type": "address"
        }
      ],
      "name": "consensusServers",
      "outputs": [
        {
          "internalType": "bool",
          "name": "",
          "type": "bool"
        }
      ],
      "stateMutability": "view",
      "type": "function",
      "constant": true
    },
    {
      "inputs": [
        {
          "internalType": "uint256",
          "name": "",
          "type": "uint256"
        }
      ],
      "name": "ehrBlockHashes",
      "outputs": [
        {
          "internalType": "bytes32",
          "name": "",
          "type": "bytes32"
        }
      ],
      "stateMutability": "view",
      "type": "function",
      "constant": true
    },
    {
      "inputs": [
        {
          "internalType": "uint256",
          "name": "",
          "type": "uint256"
        }
      ],
      "name": "evidenceIDs",
      "outputs": [
        {
          "internalType": "string",
          "name": "",
          "type": "string"
        }
      ],
      "stateMutability": "view",
      "type": "function",
      "constant": true
    },
    {
      "inputs": [],
      "name": "hospitalAdmin",
      "outputs": [
        {
          "internalType": "address",
          "name": "",
          "type": "address"
        }
      ],
      "stateMutability": "view",
      "type": "function",
      "constant": true
    },
    {
      "inputs": [
        {
          "internalType": "uint256",
          "name": "",
          "type": "uint256"
        }
      ],
      "name": "userIDs",
      "outputs": [
        {
          "internalType": "string",
          "name": "",
          "type": "string"
        }
      ],
      "stateMutability": "view",
      "type": "function",
      "constant": true
    },
    {
      "inputs": [
        {
          "internalType": "address",
          "name": "server",
          "type": "address"
        }
      ],
      "name": "addConsensusServer",
      "outputs": [],
      "stateMutability": "nonpayable",
      "type": "function"
    },
    {
      "inputs": [
        {
          "internalType": "address",
          "name": "server",
          "type": "address"
        }
      ],
      "name": "removeConsensusServer",
      "outputs": [],
      "stateMutability": "nonpayable",
      "type": "function"
    },
    {
      "inputs": [
        {
          "internalType": "string",
          "name": "pseudoID",
          "type": "string"
        },
        {
          "internalType": "string",
          "name": "gpk",
          "type": "string"
        },
        {
          "internalType": "string",
          "name": "upk",
          "type": "string"
        },
        {
          "internalType": "string",
          "name": "E_i",
          "type": "string"
        },
        {
          "internalType": "string",
          "name": "h1_i",
          "type": "string"
        },
        {
          "internalType": "uint8",
          "name": "role",
          "type": "uint8"
        }
      ],
      "name": "registerUser",
      "outputs": [],
      "stateMutability": "nonpayable",
      "type": "function"
    },
    {
      "inputs": [
        {
          "internalType": "string",
          "name": "pseudoID",
          "type": "string"
        }
      ],
      "name": "getUser",
      "outputs": [
        {
          "internalType": "string",
          "name": "gpk",
          "type": "string"
        },
        {
          "internalType": "string",
          "name": "upk",
          "type": "string"
        },
        {
          "internalType": "string",
          "name": "E_i",
          "type": "string"
        },
        {
          "internalType": "string",
          "name": "h1_i",
          "type": "string"
        },
        {
          "internalType": "uint8",
          "name": "role",
          "type": "uint8"
        },
        {
          "internalType": "bool",
          "name": "revoked",
          "type": "bool"
        },
        {
          "internalType": "bool",
          "name": "exists",
          "type": "bool"
        }
      ],
      "stateMutability": "view",
      "type": "function",
      "constant": true
    },
    {
      "inputs": [
        {
          "internalType": "string",
          "name": "pseudoID",
          "type": "string"
        }
      ],
      "name": "isRevoked",
      "outputs": [
        {
          "internalType": "bool",
          "name": "",
          "type": "bool"
        }
      ],
      "stateMutability": "view",
      "type": "function",
      "constant": true
    },
    {
      "inputs": [
        {
          "internalType": "string",
          "name": "pseudoID",
          "type": "string"
        },
        {
          "internalType": "string",
          "name": "sigma",
          "type": "string"
        },
        {
          "internalType": "string",
          "name": "KID_k",
          "type": "string"
        },
        {
          "internalType": "string",
          "name": "ciphertext",
          "type": "string"
        },
        {
          "internalType": "string",
          "name": "Q_k",
          "type": "string"
        },
        {
          "internalType": "uint256",
          "name": "timestamp",
          "type": "uint256"
        }
      ],
      "name": "storeEHRRecord",
      "outputs": [
        {
          "internalType": "bytes32",
          "name": "blockHash",
          "type": "bytes32"
        }
      ],
      "stateMutability": "nonpayable",
      "type": "function"
    },
    {
      "inputs": [
        {
          "internalType": "bytes32",
          "name": "blockHash",
          "type": "bytes32"
        }
      ],
      "name": "getEHRRecord",
      "outputs": [
        {
          "internalType": "string",
          "name": "pseudoID",
          "type": "string"
        },
        {
          "internalType": "string",
          "name": "sigma",
          "type": "string"
        },
        {
          "internalType": "string",
          "name": "KID_k",
          "type": "string"
        },
        {
          "internalType": "string",
          "name": "ciphertext",
          "type": "string"
        },
        {
          "internalType": "string",
          "name": "Q_k",
          "type": "string"
        },
        {
          "internalType": "uint256",
          "name": "timestamp",
          "type": "uint256"
        },
        {
          "internalType": "bool",
          "name": "exists",
          "type": "bool"
        }
      ],
      "stateMutability": "view",
      "type": "function",
      "constant": true
    },
    {
      "inputs": [],
      "name": "getEHRChainLength",
      "outputs": [
        {
          "internalType": "uint256",
          "name": "",
          "type": "uint256"
        }
      ],
      "stateMutability": "view",
      "type": "function",
      "constant": true
    },
    {
      "inputs": [
        {
          "internalType": "string",
          "name": "pseudoID",
          "type": "string"
        }
      ],
      "name": "getPatientEHRs",
      "outputs": [
        {
          "internalType": "bytes32[]",
          "name": "hashes",
          "type": "bytes32[]"
        }
      ],
      "stateMutability": "view",
      "type": "function",
      "constant": true
    },
    {
      "inputs": [
        {
          "internalType": "string",
          "name": "doctorPseudoID",
          "type": "string"
        },
        {
          "internalType": "string",
          "name": "patientPseudoID",
          "type": "string"
        },
        {
          "internalType": "string",
          "name": "blockHashHex",
          "type": "string"
        }
      ],
      "name": "logEHRAccess",
      "outputs": [],
      "stateMutability": "nonpayable",
      "type": "function"
    },
    {
      "inputs": [
        {
          "internalType": "string",
          "name": "pseudoID",
          "type": "string"
        },
        {
          "internalType": "string",
          "name": "HK_i",
          "type": "string"
        },
        {
          "internalType": "string",
          "name": "CH_i",
          "type": "string"
        },
        {
          "internalType": "string",
          "name": "j_i",
          "type": "string"
        },
        {
          "internalType": "string",
          "name": "credData",
          "type": "string"
        }
      ],
      "name": "addEvidenceEntry",
      "outputs": [],
      "stateMutability": "nonpayable",
      "type": "function"
    },
    {
      "inputs": [
        {
          "internalType": "string",
          "name": "pseudoID",
          "type": "string"
        },
        {
          "internalType": "string",
          "name": "newCredData",
          "type": "string"
        },
        {
          "internalType": "string",
          "name": "CH_i_check",
          "type": "string"
        }
      ],
      "name": "modifyEvidenceEntry",
      "outputs": [],
      "stateMutability": "nonpayable",
      "type": "function"
    },
    {
      "inputs": [
        {
          "internalType": "string",
          "name": "pseudoID",
          "type": "string"
        }
      ],
      "name": "getEvidenceEntry",
      "outputs": [
        {
          "internalType": "string",
          "name": "HK_i",
          "type": "string"
        },
        {
          "internalType": "string",
          "name": "CH_i",
          "type": "string"
        },
        {
          "internalType": "string",
          "name": "j_i",
          "type": "string"
        },
        {
          "internalType": "string",
          "name": "credData",
          "type": "string"
        },
        {
          "internalType": "bool",
          "name": "active",
          "type": "bool"
        }
      ],
      "stateMutability": "view",
      "type": "function",
      "constant": true
    },
    {
      "inputs": [],
      "name": "getAuditLogLength",
      "outputs": [
        {
          "internalType": "uint256",
          "name": "",
          "type": "uint256"
        }
      ],
      "stateMutability": "view",
      "type": "function",
      "constant": true
    },
    {
      "inputs": [
        {
          "internalType": "uint256",
          "name": "index",
          "type": "uint256"
        }
      ],
      "name": "getAuditEntry",
      "outputs": [
        {
          "internalType": "string",
          "name": "actor",
          "type": "string"
        },
        {
          "internalType": "string",
          "name": "action",
          "type": "string"
        },
        {
          "internalType": "string",
          "name": "target",
          "type": "string"
        },
        {
          "internalType": "uint256",
          "name": "timestamp",
          "type": "uint256"
        }
      ],
      "stateMutability": "view",
      "type": "function",
      "constant": true
    }
  ],
  "bytecode": "0x6080806040523461004057600080546001600160a01b0319163390811782558152600760205260409020805460ff19166001179055612e7390816100468239f35b600080fdfe6080604052600436101561001257600080fd5b60003560e01c80630ced949e146124c757806313313881146124a95780631bd0ecb01461237857806328534e9f146122a75780632c70e2f21461222c57806331feb6711461214357806335168a00146120e757806337e9d48c146120b05780633a0d7d92146120925780635f7e4a5a14611efc578063689558ad146116e857806369dac91314610f57578063733d968914610e815780638cca904414610b125780639653322114610a9a578063a61ecc6214610a12578063aa16f331146101d2578063edfec35e14610169578063f9db3982146101405763fdd80e08146100f857600080fd5b3461013b57602036600319011261013b576004356001600160a01b0381169081900361013b576000526007602052602060ff604060002054166040519015158152f35b600080fd5b3461013b57600036600319011261013b576000546040516001600160a01b039091168152602090f35b3461013b57602036600319011261013b5760043560025481101561013b576101ba6101ce9160026000527f405787fa12a823e0f2b7631cc41b3ba8828b3321ca811111fa75cd3aa3bb5ace016125e1565b604051918291602083526020830190612687565b0390f35b3461013b5760c036600319011261013b576004356001600160401b03811161013b576102029036906004016126c7565b6024356001600160401b03811161013b576102219036906004016126c7565b6044929192356001600160401b03811161013b576102439036906004016126c7565b906064356001600160401b03811161013b576102639036906004016126c7565b6084356001600160401b03811161013b576102829036906004016126c7565b93909433600052600760205261029f60ff6040600020541661279d565b6102c960ff60058c8b60405191823760018c8201526020818d810103019020015460101c16612952565b60ff60056040518a8d82376020818c81016001815203019020015460081c166109db576004548790898c888d888786156109ca575050505050508091506000198101116109b45761039a60808c888d88878f978f9061032b9060001901612518565b90549060031b1c935b818a6040519b8c9960208b013788019160208301600081523701818b60208301600081523701818c6020830160008152370190828d60208401600081523760a43560208484010152604083830101524360608383010152010360608101845201826125c0565b602081519101209889600052600360205260ff6007604060002001541661097c57604051976103c889612589565b6103d3368b8e6127f5565b895236906103e0926127f5565b602088015236906103f0926127f5565b60408601523690610400926127f5565b60608401523690610410926127f5565b608082015260a43560a08201528260c082015260e081016001905282600052600360205260406000209080518051906001600160401b0382116106fb5781906104638261045d875461254f565b8761283b565b602090601f831160011461091057600092610905575b50508160011b916000199060031b1c19161782555b60208101518051906001600160401b0382116106fb5781906104c0826104b7600188015461254f565b6001880161283b565b602090601f831160011461089357600092610888575b50508160011b916000199060031b1c19161760018301555b60408101518051906001600160401b0382116106fb57819061052082610517600288015461254f565b6002880161283b565b602090601f83116001146108165760009261080b575b50508160011b916000199060031b1c19161760028301555b60608101518051906001600160401b0382116106fb57819061058082610577600388015461254f565b6003880161283b565b602090601f83116001146107995760009261078e575b50508160011b916000199060031b1c19161760038301555b608081015180516001600160401b0381116106fb5760048401916105dc826105d6855461254f565b8561283b565b602090601f831160011461071c57928260e093610640979693600796600092610711575b50508160011b916000199060031b1c19161790555b60a0810151600585015560c081015160068501550151151591019060ff801983541691151516179055565b60045490600160401b8210156106fb57602093610664836001869501600455612518565b81549060031b9085821b91600019901b19161790556106b861068584612d33565b6106903685856127f5565b6040519061069d826125a5565b600a82526911521497d5541313d05160b21b898301526129f4565b8160405192839283378101600081520390207fd18900c23d3c15a1b24cf8b47a103ca79ef43edb303d0641dca53f3a92c2a8d184604051428152a3604051908152f35b634e487b7160e01b600052604160045260246000fd5b015190508b80610600565b90601f198316918460005260206000209260005b818110610776575093610640979693600796936001938360e0981061075d575b505050811b019055610615565b015160001960f88460031b161c191690558b8080610750565b92936020600181928786015181550195019301610730565b015190508780610596565b9250600385016000526020600020906000935b601f19841685106107f0576001945083601f198116106107d7575b505050811b0160038301556105ae565b015160001960f88460031b161c191690558780806107c7565b818101518355602094850194600190930192909101906107ac565b015190508780610536565b9250600285016000526020600020906000935b601f198416851061086d576001945083601f19811610610854575b505050811b01600283015561054e565b015160001960f88460031b161c19169055878080610844565b81810151835560209485019460019093019290910190610829565b0151905087806104d6565b9250600185016000526020600020906000935b601f19841685106108ea576001945083601f198116106108d1575b505050811b0160018301556104ee565b015160001960f88460031b161c191690558780806108c1565b818101518355602094850194600190930192909101906108a6565b015190508780610479565b9250846000526020600020906000935b601f1984168510610961576001945083601f19811610610948575b505050811b01825561048e565b015160001960f88460031b161c1916905587808061093b565b81810151835560209485019460019093019290910190610920565b60405162461bcd60e51b815260206004820152601060248201526f111d5c1b1a58d85d19481c9958dbdc9960821b6044820152606490fd5b634e487b7160e01b600052601160045260246000fd5b61039a965060809597600093610334565b60405162461bcd60e51b815260206004820152600f60248201526e155cd95c881a5cc81c995d9bdad959608a1b6044820152606490fd5b3461013b57602036600319011261013b57610a74610a316004356129ba565b506003810154610a90610a43836125e1565b92610a82610a5f6002610a58600185016125e1565b93016125e1565b91604051968796608088526080880190612687565b908682036020880152612687565b908482036040860152612687565b9060608301520390f35b3461013b57602036600319011261013b576004356001600160a01b038181169182900361013b577fee5dd93bb44ac634c72b5ef6bf6838762ae43f5ccb2cbc35aa06eaacff3fb24191610af4602092600054163314612759565b8060005260078252604060002060ff198154169055604051908152a1005b3461013b57610b20366126f4565b909392610b3b60018060a09895981b03600054163314612759565b604051958484883786858101600581526020988991030190209260ff60078501541615610e3e57610b9390610b7f6002860198610b778a6125e1565b9236916127f5565b906020815191012090602081519101201490565b15610de157600491610bbd610bc292610bad3682856127f5565b8a8151910120926005870161288f565b612d33565b9101908051906001600160401b0382116106fb578190610bec82610be6865461254f565b8661283b565b8790601f8311600114610d7c57600092610d71575b50508160011b916000199060031b1c19161790555b610c5c610c243684846127f5565b604051610c30816125a5565b600f81526e4d4f444946595f45564944454e434560881b87820152610c563686866127f5565b916129f4565b8160405192839283378101600081520390209060405190604082526000908054610c858161254f565b918260408601526001918281169081600014610d295750600114610cd2575b4287860152857f425d858fa264383462d745f78f4b0cf9b3d287efa0f81ed742d0cbcfea89438586860387a2005b60009081528681209093505b828410610d1557505050810160600183827f425d858fa264383462d745f78f4b0cf9b3d287efa0f81ed742d0cbcfea894385610ca4565b805485850160600152928601928101610cde565b60ff191660608088019190915293151560051b860190930193508692508491507f425d858fa264383462d745f78f4b0cf9b3d287efa0f81ed742d0cbcfea8943859050610ca4565b015190508780610c01565b60008581528981209350601f198516905b8a828210610dcb575050908460019594939210610db2575b505050811b019055610c16565b015160001960f88460031b161c19169055878080610da5565b6001859682939686015181550195019301610d8d565b60405162461bcd60e51b815260048101889052602f60248201527f43485f69206d69736d617463683a206368616d656c656f6e206861736820707260448201526e1bdc195c9d1e481d9a5bdb185d1959608a1b6064820152608490fd5b6064886040519062461bcd60e51b825280600483015260248201527f4e6f206163746976652065766964656e636520666f72207468697320757365726044820152fd5b3461013b57602036600319011261013b576004356000526003602052610f0e6040600020600581015460ff600783015416610f46610ebe846125e1565b93610f38610ece600183016125e1565b91610f2a610ede600283016125e1565b610f1c610ef96004610ef2600387016125e1565b95016125e1565b956040519b8c9b60e08d5260e08d0190612687565b908b820360208d0152612687565b9089820360408b0152612687565b908782036060890152612687565b908582036080870152612687565b9160a0840152151560c08301520390f35b3461013b5760c036600319011261013b576004356001600160401b03811161013b57610f879036906004016126c7565b906024356001600160401b03811161013b57610fa79036906004016126c7565b6044939193356001600160401b03811161013b57610fc99036906004016126c7565b90916064356001600160401b03811161013b57610fea9036906004016126c7565b916084356001600160401b03811161013b5761100a9036906004016126c7565b92909360a4359960ff8b168b0361013b5733600052600760205261103560ff6040600020541661279d565b60ff60056040518b8d823760018c8201526020818d810103019020015460101c166116a35760ff8b16158015611696575b156116625760405197886101208101106001600160401b036101208b0111176106fb576110d9976110b56110c1936110cd976110ac8f8f8f6101200160405236916127f5565b8d5236916127f5565b60208b015236916127f5565b604088015236916127f5565b606085015236916127f5565b608082015260ff841660a0820152600060c0820152600160e0820152426101008201526040518284823760208184810160018152030190209080518051906001600160401b0382116106fb5781906111358261045d875461254f565b602090601f83116001146115f6576000926115eb575b50508160011b916000199060031b1c19161782555b60208101518051906001600160401b0382116106fb578190611189826104b7600188015461254f565b602090601f83116001146115795760009261156e575b50508160011b916000199060031b1c19161760018301555b60408101518051906001600160401b0382116106fb5781906111e082610517600288015461254f565b602090601f83116001146114fc576000926114f1575b50508160011b916000199060031b1c19161760028301555b60608101518051906001600160401b0382116106fb57819061123782610577600388015461254f565b602090601f831160011461147f57600092611474575b50508160011b916000199060031b1c19161760038301555b60808101518051906001600160401b0382116106fb576112958261128c600487015461254f565b6004870161283b565b602090601f83116001146113fe57918060069492610100946000926113f3575b50508160011b916000199060031b1c19161760048501555b6005840160ff60a08301511681549061ff0060c085015115159162ff000060e0870151151560101b169362ffffff1916179160081b1617179055015191015560025490600160401b8210156106fb5760018201806002558210156113dd5782611381827f8dd3d0d2ed8576658fdc57b5f0dc89a0d9168c0795bedf33f543edd7e7e0c64b9560409560026000527f405787fa12a823e0f2b7631cc41b3ba8828b3321ca811111fa75cd3aa3bb5ace0161288f565b6113ba61138f3684846127f5565b845161139a816125a5565b60088152672922a3a4a9aa22a960c11b6020820152610c563686866127f5565b81835192839283378101600081520390209260ff825191168152426020820152a2005b634e487b7160e01b600052603260045260246000fd5b0151905089806112b5565b906004850160005260206000209160005b601f198516811061145c575092600694926001926101009583601f19811610611443575b505050811b0160048501556112cd565b015160001960f88460031b161c19169055898080611433565b9192602060018192868501518155019401920161140f565b01519050878061124d565b9250600385016000526020600020906000935b601f19841685106114d6576001945083601f198116106114bd575b505050811b016003830155611265565b015160001960f88460031b161c191690558780806114ad565b81810151835560209485019460019093019290910190611492565b0151905087806111f6565b9250600285016000526020600020906000935b601f1984168510611553576001945083601f1981161061153a575b505050811b01600283015561120e565b015160001960f88460031b161c1916905587808061152a565b8181015183556020948501946001909301929091019061150f565b01519050878061119f565b9250600185016000526020600020906000935b601f19841685106115d0576001945083601f198116106115b7575b505050811b0160018301556111b7565b015160001960f88460031b161c191690558780806115a7565b8181015183556020948501946001909301929091019061158c565b01519050878061114b565b9250846000526020600020906000935b601f1984168510611647576001945083601f1981161061162e575b505050811b018255611160565b015160001960f88460031b161c19169055878080611621565b81810151835560209485019460019093019290910190611606565b60405162461bcd60e51b815260206004820152600c60248201526b496e76616c696420726f6c6560a01b6044820152606490fd5b50600160ff8c1614611066565b60405162461bcd60e51b815260206004820152601760248201527f5573657220616c726561647920726567697374657265640000000000000000006044820152606490fd5b3461013b5760a036600319011261013b576004356001600160401b03811161013b576117189036906004016126c7565b906024356001600160401b03811161013b576117389036906004016126c7565b6044356001600160401b03811161013b576117579036906004016126c7565b9190926064356001600160401b03811161013b576117799036906004016126c7565b9091608435906001600160401b03821161013b576118436118549489946118278c94611817996117b061181e9836906004016126c7565b9890996117c860018060a01b03600054163314612759565b6117f260ff60058b6020604051828193888337600181830152810103019020015460101c16612952565b61180c611800368c8e6127f5565b60208151910120612d33565b986040519d8e612589565b36916127f5565b8b5236916127f5565b6020890152611837368a8c6127f5565b604089015236916127f5565b6060860152608085015236916127f5565b60a08201524260c0820152600160e08201526040518585823760208187810160058152030190209080518051906001600160401b0382116106fb57819061189f8261045d875461254f565b602090601f8311600114611e9057600092611e85575b50508160011b916000199060031b1c19161782555b60208101518051906001600160401b0382116106fb5781906118f3826104b7600188015461254f565b602090601f8311600114611e1357600092611e08575b50508160011b916000199060031b1c19161760018301555b60408101518051906001600160401b0382116106fb57819061194a82610517600288015461254f565b602090601f8311600114611d9657600092611d8b575b50508160011b916000199060031b1c19161760028301555b60608101518051906001600160401b0382116106fb5781906119a182610577600388015461254f565b602090601f8311600114611d1957600092611d0e575b50508160011b916000199060031b1c19161760038301555b60808101518051906001600160401b0382116106fb578190611a01826119f8600488015461254f565b6004880161283b565b602090601f8311600114611c9c57600092611c91575b50508160011b916000199060031b1c19161760048301555b60a08101518051906001600160401b0382116106fb57611a5f82611a56600587015461254f565b6005870161283b565b602090601f8311600114611c1857928260079360e093611abb9796600092611c0d575b50508160011b916000199060031b1c19161760058501555b60c081015160068501550151151591019060ff801983541691151516179055565b60065490600160401b8210156106fb5760018201806006558210156113dd57611b2d85857f807fc98948d0bbaf8e70a5d7820f1029c51e7eca73fb763b213a10a34addb20d9460066000527ff652222313e28459528d920b65115c16c04f3efc82aaedc97be59f3f377c0d3f0161288f565b60056040518686823760208188810160018152030190200161010061ff0019825416179055611b8a611b603687876127f5565b604051611b6c816125a5565b60068152655245564f4b4560d01b6020820152610c563689896127f5565b6060604051868682378087810160008152039020938260405193849260408452816040850152848401376000828201840152426020830152601f01601f19168101030190a28160405192839283378101600081520390207fa763f69c3c9af0146928042691ac161affefefadd667ce23862cea3808bf43d66020604051428152a2005b015190508b80611a82565b906005850160005260206000209160005b601f1985168110611c7957508360e093611abb979693600193600797601f19811610611c60575b505050811b016005850155611a9a565b015160001960f88460031b161c191690558b8080611c50565b91926020600181928685015181550194019201611c29565b015190508880611a17565b9250600485016000526020600020906000935b601f1984168510611cf3576001945083601f19811610611cda575b505050811b016004830155611a2f565b015160001960f88460031b161c19169055888080611cca565b81810151835560209485019460019093019290910190611caf565b0151905088806119b7565b9250600385016000526020600020906000935b601f1984168510611d70576001945083601f19811610611d57575b505050811b0160038301556119cf565b015160001960f88460031b161c19169055888080611d47565b81810151835560209485019460019093019290910190611d2c565b015190508880611960565b9250600285016000526020600020906000935b601f1984168510611ded576001945083601f19811610611dd4575b505050811b016002830155611978565b015160001960f88460031b161c19169055888080611dc4565b81810151835560209485019460019093019290910190611da9565b015190508880611909565b9250600185016000526020600020906000935b601f1984168510611e6a576001945083601f19811610611e51575b505050811b016001830155611921565b015160001960f88460031b161c19169055888080611e41565b81810151835560209485019460019093019290910190611e26565b0151905088806118b5565b9250846000526020600020906000935b601f1984168510611ee1576001945083601f19811610611ec8575b505050811b0182556118ca565b015160001960f88460031b161c19169055888080611ebb565b81810151835560209485019460019093019290910190611ea0565b3461013b5760208060031936011261013b576004356001600160401b03811161013b57611f2d9036906004016126c7565b6000906000600454905b8181106120395750611f61611f4b846129a3565b93611f5960405195866125c0565b8085526129a3565b8386019490601f190136863760009260005b838110611fbd57878688604051928392818401908285525180915260408401929160005b828110611fa657505050500390f35b835185528695509381019392810192600101611f97565b611fc681612518565b9054600391821b1c600052808952611fef611fe460406000206125e1565b610b7f3686886127f5565b612003575b50611ffe90612994565b611f73565b61200e829692612518565b9054911b1c9461201d82612994565b9587518310156113dd5789611ffe9360051b8901015290611ff4565b61204281612518565b9054600391821b1c600052865261206a61205f60406000206125e1565b610b7f3686896127f5565b61207d575b61207890612994565b611f37565b9261208a61207891612994565b93905061206f565b3461013b57600036600319011261013b576020600454604051908152f35b3461013b57602036600319011261013b5760043560045481101561013b576120d9602091612518565b90546040519160031b1c8152f35b3461013b57602036600319011261013b576004356001600160401b03811161013b5760ff6005602061211e819436906004016126c7565b919082604051938492833781016001815203019020015460081c166040519015158152f35b3461013b57602036600319011261013b576004356001600160401b03811161013b5760206121786121dd9236906004016126c7565b919082604051938492833781016001815203019020600581015460ff6122076121a3600185016125e1565b936121f96121b3600283016125e1565b916121eb6121c86004610a58600385016125e1565b93604051998a9960e08b5260e08b0190612687565b9089820360208b0152612687565b908782036040890152612687565b908582036060870152612687565b918181166080850152818160081c16151560a085015260101c16151560c08301520390f35b3461013b57602036600319011261013b576004356001600160a01b038181169182900361013b577f4de34ecaa8b00d51889221e2bb011d859df1f77c6830147d67c114289be0969391612286602092600054163314612759565b80600052600782526040600020600160ff19825416179055604051908152a1005b3461013b57602036600319011261013b576004356001600160401b03811161013b5760206122dc6123429236906004016126c7565b91908260405193849283378101600581520301902060ff60078201541661236c612308600184016125e1565b9261235e612318600283016125e1565b9161235061232d6005610a58600385016125e1565b9360405198899860a08a5260a08a0190612687565b9088820360208a0152612687565b908682036040880152612687565b908482036060860152612687565b90151560808301520390f35b3461013b57612386366126f4565b93949150915033600052602093600785526123a860ff6040600020541661279d565b600160ff600560405184868237888186810186815203019020015416036124645760ff60056040518385823787818581016001815203019020015460081c1661242b57916123ff610c5692612429969436916127f5565b93694548525f41434345535360b01b6040519461241b866125a5565b600a865285015236916127f5565b005b60405162461bcd60e51b8152600481018690526011602482015270111bd8dd1bdc881a5cc81c995d9bdad959607a1b6044820152606490fd5b60405162461bcd60e51b815260048101869052601960248201527f4163636573736f72206d757374206265206120646f63746f72000000000000006044820152606490fd5b3461013b57600036600319011261013b576020600854604051908152f35b3461013b57602036600319011261013b5760043560065481101561013b576101ba6101ce9160066000527ff652222313e28459528d920b65115c16c04f3efc82aaedc97be59f3f377c0d3f016125e1565b6004548110156113dd5760046000527f8a35acfbc15ff81a39ae7d344fd709f28e8600b4aa8c65c6b64bfe7fe36bd19b0190600090565b90600182811c9216801561257f575b602083101461256957565b634e487b7160e01b600052602260045260246000fd5b91607f169161255e565b61010081019081106001600160401b038211176106fb57604052565b604081019081106001600160401b038211176106fb57604052565b90601f801991011681019081106001600160401b038211176106fb57604052565b90604051918260008254926125f58461254f565b9081845260019485811690816000146126645750600114612621575b505061261f925003836125c0565b565b9093915060005260209081600020936000915b81831061264c57505061261f93508201013880612611565b85548884018501529485019487945091830191612634565b91505061261f94506020925060ff191682840152151560051b8201013880612611565b919082519283825260005b8481106126b3575050826000602080949584010152601f8019910116010190565b602081830181015184830182015201612692565b9181601f8401121561013b578235916001600160401b03831161013b576020838186019501011161013b57565b90606060031983011261013b576001600160401b0360043581811161013b5783612720916004016126c7565b9390939260243583811161013b578261273b916004016126c7565b9390939260443591821161013b57612755916004016126c7565b9091565b1561276057565b60405162461bcd60e51b81526020600482015260156024820152744f6e6c792048412063616e2063616c6c207468697360581b6044820152606490fd5b156127a457565b60405162461bcd60e51b815260206004820152602360248201527f4f6e6c7920636f6e73656e737573207365727665722063616e2063616c6c207460448201526268697360e81b6064820152608490fd5b9291926001600160401b0382116106fb576040519161281e601f8201601f1916602001846125c0565b82948184528183011161013b578281602093846000960137010152565b90601f811161284957505050565b600091825260208220906020601f850160051c83019410612885575b601f0160051c01915b82811061287a57505050565b81815560010161286e565b9092508290612865565b9092916001600160401b0381116106fb576128b4816128ae845461254f565b8461283b565b6000601f82116001146128ee57819293946000926128e3575b50508160011b916000199060031b1c1916179055565b0135905038806128cd565b601f198216948382526020918281209281905b88821061293a57505083600195969710612920575b505050811b019055565b0135600019600384901b60f8161c19169055388080612916565b80600184968294958701358155019501920190612901565b1561295957565b60405162461bcd60e51b8152602060048201526013602482015272155cd95c881b9bdd081c9959da5cdd195c9959606a1b6044820152606490fd5b60001981146109b45760010190565b6001600160401b0381116106fb5760051b60200190565b6008548110156113dd57600860005260021b7ff3f7a9fe364faab93b216da50a3214154f22a0a2b415b23a84c8169e8b636ee30190600090565b9190604051608081016001600160401b0390828110828211176106fb576040528482526020938483019184835260408401918252606084019242845260085490600160401b8210156106fb57612a516001928381016008556129ba565b969096612d0c57518051908482116106fb578190612a7982612a738b5461254f565b8b61283b565b8a90601f8311600114612ca957600092612c9e575b5050600019600383901b1c191690831b1786555b518051868301918482116106fb578190612ac082610be6865461254f565b8a90601f8311600114612c3b57600092612c30575b5050600019600383901b1c191690831b1790555b60028501925180519283116106fb57612b0683610be6865461254f565b8790601f8411600114612b9c57938380612b869895600395612b799c99957f2009eff5ef86d63338e1fd6fc9017ecc2650283b49f4125505d2ca8e4f8485d69e9c99600094612b91575b50501b9160001990861b1c19161790555b51910155604051948594606086526060860190612687565b9184830390850152612687565b4260408301520390a1565b015192503880612b50565b90601f9392931983169185600052896000209260005b818110612c1b575093612b799a97937f2009eff5ef86d63338e1fd6fc9017ecc2650283b49f4125505d2ca8e4f8485d69c9a9793612b869a97938360039810612c03575b505050811b019055612b61565b015160001983881b60f8161c19169055388080612bf6565b82840151855593860193928b01928b01612bb2565b015190503880612ad5565b60008581528c8120879550929190601f198516908e5b828210612c875750508411612c6e575b505050811b019055612ae9565b015160001960f88460031b161c19169055388080612c61565b83850151865589979095019493840193018e612c51565b015190503880612a8e565b60008a81528c8120879550929190601f198516908e5b828210612cf55750508411612cdc575b505050811b018655612aa2565b015160001960f88460031b161c19169055388080612ccf565b83850151865589979095019493840193018e612cbf565b634e487b7160e01b600052600060045260246000fd5b9081518110156113dd570160200190565b604051612d3f816125a5565b6010815260206f181899199a1a9b1b9c1cb0b131b232b360811b8183015260405192606084018481106001600160401b038211176106fb57604052604084526040368386013760005b828110612d96575050505090565b600f82821a60046001600160f81b031980612db584841c86168a612d22565b51169360019386851b9587870460021488151715612e2857612de892919060001a612de0888e612d22565b531689612d22565b5116918301809311612e13575090612e08612e0e939260001a9188612d22565b53612994565b612d88565b601190634e487b7160e01b6000525260246000fd5b601185634e487b7160e01b6000525260246000fdfea2646970667358221220baae8fd744d12c1e3a158223840e5ece99e2c0380aa7704725df82843786b97664736f6c63430008140033",
  "immutableReferences": {},
  "source": "// SPDX-License-Identifier: MIT\npragma solidity ^0.8.20;\n\n/**\n * @title BCCA_Healthcare\n * @notice Blockchain-Based Certificateless Conditional Anonymous Authentication\n *         for Healthcare EHR Sharing (Dual-Chain Architecture)\n *\n * @dev Implements the dual-chain design from healthcare_ehr_scheme.md:\n *\n *   HISTORICAL CHAIN  — Immutable, stores verified EHR signature records.\n *                        Every patient EHR upload that passes verification is logged.\n *\n *   EVIDENCE CHAIN    — Stores revocation evidence with Chameleon Hash.\n *                        HA can update evidence content without changing the block hash.\n *\n * The actual ECC signature verification (σ_i · G == gpk_i + h₁·Ppub + h₂·KID_k + h₃·upk_i)\n * is performed off-chain by the Python Flask consensus server (bcca/verify.py).\n * Once verified, the server calls this contract to record the result on-chain.\n *\n * Role constants: 0 = PATIENT, 1 = DOCTOR, 2 = HOSPITAL_ADMIN\n */\ncontract BCCA_Healthcare {\n\n    // -----------------------------------------------------------------------\n    // Access control\n    // -----------------------------------------------------------------------\n\n    address public hospitalAdmin;\n\n    modifier onlyAdmin() {\n        require(msg.sender == hospitalAdmin, \"Only HA can call this\");\n        _;\n    }\n\n    modifier onlyConsensusServer() {\n        require(consensusServers[msg.sender], \"Only consensus server can call this\");\n        _;\n    }\n\n    // -----------------------------------------------------------------------\n    // Roles\n    // -----------------------------------------------------------------------\n\n    uint8 constant ROLE_PATIENT = 0;\n    uint8 constant ROLE_DOCTOR  = 1;\n\n    // -----------------------------------------------------------------------\n    // User Registry\n    // -----------------------------------------------------------------------\n\n    struct UserRecord {\n        string  pseudoID;      // ID_i  — pseudonym encoding RID ‖ Role\n        string  gpk;           // gpk_i = k_i · G  (hex-encoded ECPoint)\n        string  upk;           // upk_i = x_i · G  (hex-encoded ECPoint)\n        string  E_i;           // E_i   = d_i · G  (hex-encoded ECPoint)\n        string  h1_i;          // h_{1,i} scalar (decimal string)\n        uint8   role;          // ROLE_PATIENT or ROLE_DOCTOR\n        bool    revoked;\n        bool    exists;\n        uint256 registeredAt;\n    }\n\n    mapping(string => UserRecord) private users;   // pseudoID → UserRecord\n    string[] public userIDs;                        // list of all pseudonym IDs\n\n    event UserRegistered(string indexed pseudoID, uint8 role, uint256 timestamp);\n    event UserRevoked(string indexed pseudoID, uint256 timestamp);\n\n    // -----------------------------------------------------------------------\n    // Historical Chain — Verified EHR Signature Records\n    // -----------------------------------------------------------------------\n\n    struct EHRRecord {\n        string  pseudoID;      // Patient's pseudonym\n        string  sigma;         // σ_i  (decimal string)\n        string  KID_k;         // KID_{i,k} (hex ECPoint)\n        string  ciphertext;    // c_i = m_i ⊕ ek_{i,k}  (hex bytes)\n        string  Q_k;           // Q_{i,k} (hex ECPoint)\n        uint256 timestamp;     // T_i\n        bytes32 blockHash;     // keccak256 of EHR fields for integrity\n        bool    exists;\n    }\n\n    mapping(bytes32 => EHRRecord) private ehrRecords;   // blockHash → record\n    bytes32[] public ehrBlockHashes;                     // ordered chain\n\n    event EHRUploaded(\n        string  indexed pseudoID,\n        bytes32 indexed blockHash,\n        uint256 timestamp\n    );\n\n    // -----------------------------------------------------------------------\n    // Evidence Chain — Revocation Evidence with Chameleon Hash\n    // -----------------------------------------------------------------------\n\n    struct EvidenceRecord {\n        string  pseudoID;      // Revoked user's pseudonym\n        string  HK_i;          // HK_i = ck_i · G  (hex ECPoint, public hash key)\n        string  CH_i;          // Chameleon Hash value  (hex ECPoint)\n        string  j_i;           // Salt j_i (decimal string)\n        string  credHash;      // keccak256 hex of credential data (commitment)\n        string  credData;      // cred_i = {ID, RID_masked, Role, evidence}\n        uint256 timestamp;\n        bool    active;\n    }\n\n    mapping(string => EvidenceRecord) private evidenceChain;  // pseudoID → evidence\n    string[] public evidenceIDs;\n\n    event EvidenceAdded(string indexed pseudoID, string CH_i, uint256 timestamp);\n    event EvidenceModified(string indexed pseudoID, string CH_i, uint256 timestamp);\n\n    // -----------------------------------------------------------------------\n    // Consensus Servers (Blockchain Nodes that verify signatures off-chain)\n    // -----------------------------------------------------------------------\n\n    mapping(address => bool) public consensusServers;\n\n    event ConsensusServerAdded(address server);\n    event ConsensusServerRemoved(address server);\n\n    // -----------------------------------------------------------------------\n    // Audit Log (for HIPAA / GDPR compliance)\n    // -----------------------------------------------------------------------\n\n    struct AuditEntry {\n        string  actor;         // pseudoID of patient or doctor\n        string  action;        // \"EHR_UPLOAD\", \"EHR_ACCESS\", \"REVOKE\", etc.\n        string  target;        // target pseudoID or EHR blockHash (hex)\n        uint256 timestamp;\n    }\n\n    AuditEntry[] private auditLog;\n\n    event AuditLogged(string actor, string action, uint256 timestamp);\n\n    // -----------------------------------------------------------------------\n    // Constructor\n    // -----------------------------------------------------------------------\n\n    constructor() {\n        hospitalAdmin = msg.sender;\n        consensusServers[msg.sender] = true;\n    }\n\n    // -----------------------------------------------------------------------\n    // Admin functions\n    // -----------------------------------------------------------------------\n\n    function addConsensusServer(address server) external onlyAdmin {\n        consensusServers[server] = true;\n        emit ConsensusServerAdded(server);\n    }\n\n    function removeConsensusServer(address server) external onlyAdmin {\n        consensusServers[server] = false;\n        emit ConsensusServerRemoved(server);\n    }\n\n    // -----------------------------------------------------------------------\n    // User Registration (called by consensus server after HA issues partial key)\n    // -----------------------------------------------------------------------\n\n    function registerUser(\n        string calldata pseudoID,\n        string calldata gpk,\n        string calldata upk,\n        string calldata E_i,\n        string calldata h1_i,\n        uint8           role\n    ) external onlyConsensusServer {\n        require(!users[pseudoID].exists, \"User already registered\");\n        require(role == ROLE_PATIENT || role == ROLE_DOCTOR, \"Invalid role\");\n\n        users[pseudoID] = UserRecord({\n            pseudoID     : pseudoID,\n            gpk          : gpk,\n            upk          : upk,\n            E_i          : E_i,\n            h1_i         : h1_i,\n            role         : role,\n            revoked      : false,\n            exists       : true,\n            registeredAt : block.timestamp\n        });\n        userIDs.push(pseudoID);\n\n        _addAudit(pseudoID, \"REGISTER\", pseudoID);\n        emit UserRegistered(pseudoID, role, block.timestamp);\n    }\n\n    function getUser(string calldata pseudoID)\n        external view\n        returns (string memory gpk, string memory upk, string memory E_i,\n                 string memory h1_i, uint8 role, bool revoked, bool exists)\n    {\n        UserRecord storage u = users[pseudoID];\n        return (u.gpk, u.upk, u.E_i, u.h1_i, u.role, u.revoked, u.exists);\n    }\n\n    function isRevoked(string calldata pseudoID) external view returns (bool) {\n        return users[pseudoID].revoked;\n    }\n\n    // -----------------------------------------------------------------------\n    // Historical Chain — EHR Upload (called after off-chain verification)\n    // -----------------------------------------------------------------------\n\n    /**\n     * @notice Store a verified EHR signature record on the Historical Chain.\n     * @dev Called by the consensus server (Flask backend) ONLY after\n     *      bcca/verify.py confirms the signature σ_i is valid.\n     */\n    function storeEHRRecord(\n        string calldata pseudoID,\n        string calldata sigma,\n        string calldata KID_k,\n        string calldata ciphertext,\n        string calldata Q_k,\n        uint256         timestamp\n    ) external onlyConsensusServer returns (bytes32 blockHash) {\n        require(users[pseudoID].exists, \"User not registered\");\n        require(!users[pseudoID].revoked, \"User is revoked\");\n\n        // Compute block hash (links this record to the chain)\n        bytes32 prevHash = ehrBlockHashes.length > 0\n            ? ehrBlockHashes[ehrBlockHashes.length - 1]\n            : bytes32(0);\n\n        blockHash = keccak256(abi.encodePacked(\n            pseudoID, sigma, KID_k, ciphertext, Q_k,\n            timestamp, prevHash, block.number\n        ));\n\n        require(!ehrRecords[blockHash].exists, \"Duplicate record\");\n\n        ehrRecords[blockHash] = EHRRecord({\n            pseudoID   : pseudoID,\n            sigma      : sigma,\n            KID_k      : KID_k,\n            ciphertext : ciphertext,\n            Q_k        : Q_k,\n            timestamp  : timestamp,\n            blockHash  : blockHash,\n            exists     : true\n        });\n        ehrBlockHashes.push(blockHash);\n\n        _addAudit(pseudoID, \"EHR_UPLOAD\", _bytes32ToHex(blockHash));\n        emit EHRUploaded(pseudoID, blockHash, block.timestamp);\n        return blockHash;\n    }\n\n    function getEHRRecord(bytes32 blockHash)\n        external view\n        returns (\n            string memory pseudoID,\n            string memory sigma,\n            string memory KID_k,\n            string memory ciphertext,\n            string memory Q_k,\n            uint256 timestamp,\n            bool exists\n        )\n    {\n        EHRRecord storage r = ehrRecords[blockHash];\n        return (r.pseudoID, r.sigma, r.KID_k, r.ciphertext, r.Q_k, r.timestamp, r.exists);\n    }\n\n    /// @notice Returns list of EHR block hashes (to query the chain)\n    function getEHRChainLength() external view returns (uint256) {\n        return ehrBlockHashes.length;\n    }\n\n    /// @notice Get EHR records for a specific patient pseudonym\n    function getPatientEHRs(string calldata pseudoID)\n        external view\n        returns (bytes32[] memory hashes)\n    {\n        uint256 count = 0;\n        for (uint256 i = 0; i < ehrBlockHashes.length; i++) {\n            if (_strEq(ehrRecords[ehrBlockHashes[i]].pseudoID, pseudoID)) {\n                count++;\n            }\n        }\n        hashes = new bytes32[](count);\n        uint256 j = 0;\n        for (uint256 i = 0; i < ehrBlockHashes.length; i++) {\n            if (_strEq(ehrRecords[ehrBlockHashes[i]].pseudoID, pseudoID)) {\n                hashes[j++] = ehrBlockHashes[i];\n            }\n        }\n    }\n\n    // -----------------------------------------------------------------------\n    // Audit Log — Doctor accessing EHR\n    // -----------------------------------------------------------------------\n\n    function logEHRAccess(\n        string calldata doctorPseudoID,\n        string calldata patientPseudoID,\n        string calldata blockHashHex\n    ) external onlyConsensusServer {\n        require(users[doctorPseudoID].role == ROLE_DOCTOR, \"Accessor must be a doctor\");\n        require(!users[doctorPseudoID].revoked, \"Doctor is revoked\");\n        _addAudit(doctorPseudoID, \"EHR_ACCESS\", blockHashHex);\n    }\n\n    // -----------------------------------------------------------------------\n    // Evidence Chain — Revocation (Algorithm 9)\n    // -----------------------------------------------------------------------\n\n    /**\n     * @notice Add a revocation evidence entry to the Evidence Chain.\n     *         CH_i value serves as the immutable block identifier.\n     *         Content can be updated by HA (Algorithm 10) via chameleon hash.\n     */\n    function addEvidenceEntry(\n        string calldata pseudoID,\n        string calldata HK_i,\n        string calldata CH_i,\n        string calldata j_i,\n        string calldata credData\n    ) external onlyAdmin {\n        require(users[pseudoID].exists, \"User not registered\");\n\n        bytes32 credHash = keccak256(bytes(credData));\n\n        evidenceChain[pseudoID] = EvidenceRecord({\n            pseudoID  : pseudoID,\n            HK_i      : HK_i,\n            CH_i      : CH_i,\n            j_i       : j_i,\n            credHash  : _bytes32ToHex(credHash),\n            credData  : credData,\n            timestamp : block.timestamp,\n            active    : true\n        });\n        evidenceIDs.push(pseudoID);\n\n        // Mark user as revoked\n        users[pseudoID].revoked = true;\n\n        _addAudit(pseudoID, \"REVOKE\", pseudoID);\n        emit EvidenceAdded(pseudoID, CH_i, block.timestamp);\n        emit UserRevoked(pseudoID, block.timestamp);\n    }\n\n    /**\n     * @notice Modify evidence data (Algorithm 10).\n     *         CH_i must remain unchanged — Python verifies chameleon hash property.\n     *         HA provides new credData that produces the same CH_i via trapdoor.\n     */\n    function modifyEvidenceEntry(\n        string calldata pseudoID,\n        string calldata newCredData,\n        string calldata CH_i_check\n    ) external onlyAdmin {\n        EvidenceRecord storage ev = evidenceChain[pseudoID];\n        require(ev.active, \"No active evidence for this user\");\n        // Verify CH_i has not changed (Python-computed, submitted for on-chain check)\n        require(_strEq(ev.CH_i, CH_i_check), \"CH_i mismatch: chameleon hash property violated\");\n\n        bytes32 newCredHash = keccak256(bytes(newCredData));\n        ev.credData = newCredData;\n        ev.credHash = _bytes32ToHex(newCredHash);\n\n        _addAudit(pseudoID, \"MODIFY_EVIDENCE\", pseudoID);\n        emit EvidenceModified(pseudoID, ev.CH_i, block.timestamp);\n    }\n\n    function getEvidenceEntry(string calldata pseudoID)\n        external view\n        returns (\n            string memory HK_i,\n            string memory CH_i,\n            string memory j_i,\n            string memory credData,\n            bool active\n        )\n    {\n        EvidenceRecord storage ev = evidenceChain[pseudoID];\n        return (ev.HK_i, ev.CH_i, ev.j_i, ev.credData, ev.active);\n    }\n\n    // -----------------------------------------------------------------------\n    // Audit Log retrieval\n    // -----------------------------------------------------------------------\n\n    function getAuditLogLength() external view returns (uint256) {\n        return auditLog.length;\n    }\n\n    function getAuditEntry(uint256 index)\n        external view\n        returns (string memory actor, string memory action,\n                 string memory target, uint256 timestamp)\n    {\n        AuditEntry storage e = auditLog[index];\n        return (e.actor, e.action, e.target, e.timestamp);\n    }\n\n    // -----------------------------------------------------------------------\n    // Internal helpers\n    // -----------------------------------------------------------------------\n\n    function _addAudit(string memory actor, string memory action, string memory target) internal {\n        auditLog.push(AuditEntry({\n            actor     : actor,\n            action    : action,\n            target    : target,\n            timestamp : block.timestamp\n        }));\n        emit AuditLogged(actor, action, block.timestamp);\n    }\n\n    function _strEq(string memory a, string memory b) internal pure returns (bool) {\n        return keccak256(bytes(a)) == keccak256(bytes(b));\n    }\n\n    function _bytes32ToHex(bytes32 b) internal pure returns (string memory) {\n        bytes memory hexChars = \"0123456789abcdef\";\n        bytes memory str = new bytes(64);\n        for (uint256 i = 0; i < 32; i++) {\n            str[i * 2]     = hexChars[uint8(b[i] >> 4)];\n            str[i * 2 + 1] = hexChars[uint8(b[i] & 0x0f)];\n        }\n        return string(str);\n    }\n}\n",
  "sourcePath": "C:\\Users\\sai charan ramuni\\OneDrive\\Desktop\\Blockchain-Based anonymous authentication framework for Healthcare IoT\\contracts\\BCCA.sol",
  "compiler": {
    "name": "solc",
    "version": "0.8.20+commit.a1b79de6.Emscripten.clang"
  },
  "schemaVersion": "3.4.16",
  "updatedAt": "2026-04-25T11:02:52.024Z",
  "networkType": "ethereum",
  "devdoc": {
    "details": "Implements the dual-chain design from healthcare_ehr_scheme.md:   HISTORICAL CHAIN  — Immutable, stores verified EHR signature records.                        Every patient EHR upload that passes verification is logged.   EVIDENCE CHAIN    — Stores revocation evidence with Chameleon Hash.                        HA can update evidence content without changing the block hash. The actual ECC signature verification (σ_i · G == gpk_i + h₁·Ppub + h₂·KID_k + h₃·upk_i) is performed off-chain by the Python Flask consensus server (bcca/verify.py). Once verified, the server calls this contract to record the result on-chain. Role constants: 0 = PATIENT, 1 = DOCTOR, 2 = HOSPITAL_ADMIN",
    "kind": "dev",
    "methods": {
      "storeEHRRecord(string,string,string,string,string,uint256)": {
        "details": "Called by the consensus server (Flask backend) ONLY after      bcca/verify.py confirms the signature σ_i is valid."
      }
    },
    "title": "BCCA_Healthcare",
    "version": 1
  },
  "userdoc": {
    "kind": "user",
    "methods": {
      "addEvidenceEntry(string,string,string,string,string)": {
        "notice": "Add a revocation evidence entry to the Evidence Chain.         CH_i value serves as the immutable block identifier.         Content can be updated by HA (Algorithm 10) via chameleon hash."
      },
      "getEHRChainLength()": {
        "notice": "Returns list of EHR block hashes (to query the chain)"
      },
      "getPatientEHRs(string)": {
        "notice": "Get EHR records for a specific patient pseudonym"
      },
      "modifyEvidenceEntry(string,string,string)": {
        "notice": "Modify evidence data (Algorithm 10).         CH_i must remain unchanged — Python verifies chameleon hash property.         HA provides new credData that produces the same CH_i via trapdoor."
      },
      "storeEHRRecord(string,string,string,string,string,uint256)": {
        "notice": "Store a verified EHR signature record on the Historical Chain."
      }
    },
    "notice": "Blockchain-Based Certificateless Conditional Anonymous Authentication         for Healthcare EHR Sharing (Dual-Chain Architecture)",
    "version": 1
  }
}